{
  "_format": "hh-sol-artifact-1",
  "contractName": "ExecutionLogger",
  "sourceName": "contracts/ExecutionLogger.sol",
  "abi": [
    {
      "anonymous": false,
      "inputs": [
        {
          "indexed": true,
          "internalType": "uint256",
          "name": "id",
          "type": "uint256"
        },
        {
          "indexed": true,
          "internalType": "address",
          "name": "user",
          "type": "address"
        },
        {
          "indexed": true,
          "internalType": "bytes32",
          "name": "pipelineId",
          "type": "bytes32"
        },
        {
          "indexed": false,
          "internalType": "uint256[]",
          "name": "appletIds",
          "type": "uint256[]"
        },
        {
          "indexed": false,
          "internalType": "uint256",
          "name": "totalPrice",
          "type": "uint256"
        },
        {
          "indexed": false,
          "internalType": "bytes32",
          "name": "resultHash",
          "type": "bytes32"
        },
        {
          "indexed": false,
          "internalType": "uint256",
          "name": "timestamp",
          "type": "uint256"
        }
      ],
      "name": "ExecutionLogged",
      "type": "event"
    },
    {
      "inputs": [],
      "name": "executionCount",
      "outputs": [
        {
          "internalType": "uint256",
          "name": "",
          "type": "uint256"
        }
      ],
      "stateMutability": "view",
      "type": "function"
    },
    {
      "inputs": [
        {
          "internalType": "uint256",
          "name": "",
          "type": "uint256"
        }
      ],
      "name": "executions",
      "outputs": [
        {
          "internalType": "uint256",
          "name": "id",
          "type": "uint256"
        },
        {
          "internalType": "address",
          "name": "user",
          "type": "address"
        },
        {
          "internalType": "bytes32",
          "name": "pipelineId",
          "type": "bytes32"
        },
        {
          "internalType": "uint256",
          "name": "totalPrice",
          "type": "uint256"
        },
        {
          "internalType": "bytes32",
          "name": "resultHash",
          "type": "bytes32"
        },
        {
          "internalType": "uint256",
          "name": "timestamp",
          "type": "uint256"
        }
      ],
      "stateMutability": "view",
      "type": "function"
    },
    {
      "inputs": [
        {
          "internalType": "uint256",
          "name": "_id",
          "type": "uint256"
        }
      ],
      "name": "getExecutionById",
      "outputs": [
        {
          "components": [
            {
              "internalType": "uint256",
              "name": "id",
              "type": "uint256"
            },
            {
              "internalType": "address",
              "name": "user",
              "type": "address"
            },
            {
              "internalType": "bytes32",
              "name": "pipelineId",
              "type": "bytes32"
            },
            {
              "internalType": "uint256[]",
              "name": "appletIds",
              "type": "uint256[]"
            },
            {
              "internalType": "uint256",
              "name": "totalPrice",
              "type": "uint256"
            },
            {
              "internalType": "bytes32",
              "name": "resultHash",
              "type": "bytes32"
            },
            {
              "internalType": "uint256",
              "name": "timestamp",
              "type": "uint256"
            }
          ],
          "internalType": "struct ExecutionLogger.Execution",
          "name": "",
          "type": "tuple"
        }
      ],
      "stateMutability": "view",
      "type": "function"
    },
    {
      "inputs": [
        {
          "internalType": "address",
          "name": "_user",
          "type": "address"
        }
      ],
      "name": "getExecutionsByUser",
      "outputs": [
        {
          "components": [
            {
              "internalType": "uint256",
              "name": "id",
              "type": "uint256"
            },
            {
              "internalType": "address",
              "name": "user",
              "type": "address"
            },
            {
              "internalType": "bytes32",
              "name": "pipelineId",
              "type": "bytes32"
            },
            {
              "internalType": "uint256[]",
              "name": "appletIds",
              "type": "uint256[]"
            },
            {
              "internalType": "uint256",
              "name": "totalPrice",
              "type": "uint256"
            },
            {
              "internalType": "bytes32",
              "name": "resultHash",
              "type": "bytes32"
            },
            {
              "internalType": "uint256",
              "name": "timestamp",
              "type": "uint256"
            }
          ],
          "internalType": "struct ExecutionLogger.Execution[]",
          "name": "",
          "type": "tuple[]"
        }
      ],
      "stateMutability": "view",
      "type": "function"
    },
    {
      "inputs": [
        {
          "internalType": "address",
          "name": "_user",
          "type": "address"
        }
      ],
      "name": "getUserExecutionCount",
      "outputs": [
        {
          "internalType": "uint256",
          "name": "",
          "type": "uint256"
        }
      ],
      "stateMutability": "view",
      "type": "function"
    },
    {
      "inputs": [
        {
          "internalType": "bytes32",
          "name": "_pipelineId",
          "type": "bytes32"
        },
        {
          "internalType": "uint256[]",
          "name": "_appletIds",
          "type": "uint256[]"
        },
        {
          "internalType": "uint256",
          "name": "_totalPrice",
          "type": "uint256"
        },
        {
          "internalType": "bytes32",
          "name": "_resultHash",
          "type": "bytes32"
        }
      ],
      "name": "logExecution",
      "outputs": [
        {
          "internalType": "uint256",
          "name": "",
          "type": "uint256"
        }
      ],
      "stateMutability": "nonpayable",
      "type": "function"
    },
    {
      "inputs": [
        {
          "internalType": "address",
          "name": "",
          "type": "address"
        },
        {
          "internalType": "uint256",
          "name": "",
          "type": "uint256"
        }
      ],
      "name": "userExecutions",
      "outputs": [
        {
          "internalType": "uint256",
          "name": "",
          "type": "uint256"
        }
      ],
      "stateMutability": "view",
      "type": "function"
    }
  ],
  "bytecode": "0x608060405234801561001057600080fd5b50610a6f806100206000396000f3fe608060405234801561001057600080fd5b506004361061007d5760003560e01c8063a17ecef31161005b578063a17ecef3146100f1578063a711d57c146100fa578063f76c92291461010d578063fece60211461018f57600080fd5b806368f8e16c146100825780637ac6ab23146100be5780639e7800c4146100d1575b600080fd5b6100ab61009036600461074a565b6001600160a01b031660009081526001602052604090205490565b6040519081526020015b60405180910390f35b6100ab6100cc366004610782565b6101af565b6100e46100df36600461085a565b610354565b6040516100b59190610906565b6100ab60025481565b6100ab610108366004610919565b61049e565b61015a61011b36600461085a565b60006020819052908152604090208054600182015460028301546004840154600585015460069095015493946001600160a01b03909316939192909186565b604080519687526001600160a01b039095166020870152938501929092526060840152608083015260a082015260c0016100b5565b6101a261019d36600461074a565b6104cf565b6040516100b59190610943565b6000808451116102155760405162461bcd60e51b815260206004820152602660248201527f506970656c696e65206d7573742068617665206174206c65617374206f6e6520604482015265185c1c1b195d60d21b60648201526084015b60405180910390fd5b60028054906000610225836109a5565b90915550506040805160e081018252600280548083523360208085019182528486018b8152606086018b8152608087018b905260a087018a90524260c08801526000948552848352969093208551815591516001830180546001600160a01b0319166001600160a01b0390921691909117905591519281019290925592518051929391926102b992600385019201906106ce565b506080820151600482015560a0820151600582015560c0909101516006909101553360008181526001602081815260408084206002805482549586018355918652929094209092019290925590549051879291907fd92bfbe3ca31cfe8821c95de89daac1dde754d01d439af6dc37b87d386af3179906103409089908990899042906109cc565b60405180910390a450600254949350505050565b6040805160e0810182526000808252602082018190529181018290526060808201526080810182905260a0810182905260c081019190915260008211801561039e57506002548211155b6103ea5760405162461bcd60e51b815260206004820152601860248201527f457865637574696f6e20646f6573206e6f742065786973740000000000000000604482015260640161020c565b60008281526020818152604091829020825160e0810184528154815260018201546001600160a01b031681840152600282015481850152600382018054855181860281018601909652808652919492936060860193929083018282801561047057602002820191906000526020600020905b81548152602001906001019080831161045c575b5050505050815260200160048201548152602001600582015481526020016006820154815250509050919050565b600160205281600052604060002081815481106104ba57600080fd5b90600052602060002001600091509150505481565b6001600160a01b038116600090815260016020908152604080832080548251818502810185019093528083526060949383018282801561052e57602002820191906000526020600020905b81548152602001906001019080831161051a575b505050505090506000815167ffffffffffffffff8111156105515761055161076c565b6040519080825280602002602001820160405280156105b757816020015b6040805160e081018252600080825260208083018290529282018190526060808301526080820181905260a0820181905260c0820152825260001990920191018161056f5790505b50905060005b82518110156106c6576000808483815181106105db576105db610a23565b6020908102919091018101518252818101929092526040908101600020815160e0810183528154815260018201546001600160a01b03168185015260028201548184015260038201805484518187028101870190955280855291949293606086019390929083018282801561066f57602002820191906000526020600020905b81548152602001906001019080831161065b575b5050505050815260200160048201548152602001600582015481526020016006820154815250508282815181106106a8576106a8610a23565b602002602001018190525080806106be906109a5565b9150506105bd565b509392505050565b828054828255906000526020600020908101928215610709579160200282015b828111156107095782518255916020019190600101906106ee565b50610715929150610719565b5090565b5b80821115610715576000815560010161071a565b80356001600160a01b038116811461074557600080fd5b919050565b60006020828403121561075c57600080fd5b6107658261072e565b9392505050565b634e487b7160e01b600052604160045260246000fd5b6000806000806080858703121561079857600080fd5b8435935060208086013567ffffffffffffffff808211156107b857600080fd5b818801915088601f8301126107cc57600080fd5b8135818111156107de576107de61076c565b8060051b604051601f19603f830116810181811085821117156108035761080361076c565b60405291825284820192508381018501918b83111561082157600080fd5b938501935b8285101561083f57843584529385019392850192610826565b989b989a505050506040870135966060013595945050505050565b60006020828403121561086c57600080fd5b5035919050565b805182526020808201516001600160a01b0316818401526040808301519084015260608083015160e091850182905280519185018290526000929081019183906101008701905b808310156108da57845182529383019360019290920191908301906108ba565b506080860151608088015260a086015160a088015260c086015160c08801528094505050505092915050565b6020815260006107656020830184610873565b6000806040838503121561092c57600080fd5b6109358361072e565b946020939093013593505050565b6000602080830181845280855180835260408601915060408160051b870101925083870160005b8281101561099857603f19888603018452610986858351610873565b9450928501929085019060010161096a565b5092979650505050505050565b6000600182016109c557634e487b7160e01b600052601160045260246000fd5b5060010190565b6080808252855190820181905260009060209060a0840190828901845b82811015610a05578151845292840192908401906001016109e9565b50505090830195909552506040810192909252606090910152919050565b634e487b7160e01b600052603260045260246000fdfea2646970667358221220d366c3893e335ef74401b7def8eeb3dbd30ff4c2fb4f3374f228f97920f89e2064736f6c63430008130033",
  "linkReferences": {},
  "deployedLinkReferences": {}
}