{
  "_format": "hh-sol-artifact-1",
  "contractName": "AppletRegistry",
  "sourceName": "contracts/AppletRegistry.sol",
  "abi": [
    {
      "anonymous": false,
      "inputs": [
        {
          "indexed": true,
          "internalType": "uint256",
          "name": "id",
          "type": "uint256"
        },
        {
          "indexed": false,
          "internalType": "string",
          "name": "name",
          "type": "string"
        },
        {
          "indexed": true,
          "internalType": "address",
          "name": "owner",
          "type": "address"
        },
        {
          "indexed": false,
          "internalType": "uint256",
          "name": "price",
          "type": "uint256"
        }
      ],
      "name": "AppletRegistered",
      "type": "event"
    },
    {
      "anonymous": false,
      "inputs": [
        {
          "indexed": true,
          "internalType": "uint256",
          "name": "id",
          "type": "uint256"
        },
        {
          "indexed": false,
          "internalType": "bool",
          "name": "isActive",
          "type": "bool"
        }
      ],
      "name": "AppletUpdated",
      "type": "event"
    },
    {
      "inputs": [],
      "name": "appletCount",
      "outputs": [
        {
          "internalType": "uint256",
          "name": "",
          "type": "uint256"
        }
      ],
      "stateMutability": "view",
      "type": "function"
    },
    {
      "inputs": [
        {
          "internalType": "uint256",
          "name": "",
          "type": "uint256"
        }
      ],
      "name": "applets",
      "outputs": [
        {
          "internalType": "uint256",
          "name": "id",
          "type": "uint256"
        },
        {
          "internalType": "string",
          "name": "name",
          "type": "string"
        },
        {
          "internalType": "string",
          "name": "description",
          "type": "string"
        },
        {
          "internalType": "uint256",
          "name": "price",
          "type": "uint256"
        },
        {
          "internalType": "address",
          "name": "owner",
          "type": "address"
        },
        {
          "internalType": "bytes32",
          "name": "inputSchemaHash",
          "type": "bytes32"
        },
        {
          "internalType": "bytes32",
          "name": "outputSchemaHash",
          "type": "bytes32"
        },
        {
          "internalType": "bool",
          "name": "isActive",
          "type": "bool"
        }
      ],
      "stateMutability": "view",
      "type": "function"
    },
    {
      "inputs": [
        {
          "internalType": "uint256",
          "name": "_id",
          "type": "uint256"
        }
      ],
      "name": "getAppletById",
      "outputs": [
        {
          "components": [
            {
              "internalType": "uint256",
              "name": "id",
              "type": "uint256"
            },
            {
              "internalType": "string",
              "name": "name",
              "type": "string"
            },
            {
              "internalType": "string",
              "name": "description",
              "type": "string"
            },
            {
              "internalType": "uint256",
              "name": "price",
              "type": "uint256"
            },
            {
              "internalType": "address",
              "name": "owner",
              "type": "address"
            },
            {
              "internalType": "bytes32",
              "name": "inputSchemaHash",
              "type": "bytes32"
            },
            {
              "internalType": "bytes32",
              "name": "outputSchemaHash",
              "type": "bytes32"
            },
            {
              "internalType": "bool",
              "name": "isActive",
              "type": "bool"
            }
          ],
          "internalType": "struct AppletRegistry.Applet",
          "name": "",
          "type": "tuple"
        }
      ],
      "stateMutability": "view",
      "type": "function"
    },
    {
      "inputs": [],
      "name": "getApplets",
      "outputs": [
        {
          "components": [
            {
              "internalType": "uint256",
              "name": "id",
              "type": "uint256"
            },
            {
              "internalType": "string",
              "name": "name",
              "type": "string"
            },
            {
              "internalType": "string",
              "name": "description",
              "type": "string"
            },
            {
              "internalType": "uint256",
              "name": "price",
              "type": "uint256"
            },
            {
              "internalType": "address",
              "name": "owner",
              "type": "address"
            },
            {
              "internalType": "bytes32",
              "name": "inputSchemaHash",
              "type": "bytes32"
            },
            {
              "internalType": "bytes32",
              "name": "outputSchemaHash",
              "type": "bytes32"
            },
            {
              "internalType": "bool",
              "name": "isActive",
              "type": "bool"
            }
          ],
          "internalType": "struct AppletRegistry.Applet[]",
          "name": "",
          "type": "tuple[]"
        }
      ],
      "stateMutability": "view",
      "type": "function"
    },
    {
      "inputs": [
        {
          "internalType": "string",
          "name": "_name",
          "type": "string"
        },
        {
          "internalType": "string",
          "name": "_description",
          "type": "string"
        },
        {
          "internalType": "uint256",
          "name": "_price",
          "type": "uint256"
        },
        {
          "internalType": "bytes32",
          "name": "_inputSchemaHash",
          "type": "bytes32"
        },
        {
          "internalType": "bytes32",
          "name": "_outputSchemaHash",
          "type": "bytes32"
        }
      ],
      "name": "registerApplet",
      "outputs": [
        {
          "internalType": "uint256",
          "name": "",
          "type": "uint256"
        }
      ],
      "stateMutability": "nonpayable",
      "type": "function"
    },
    {
      "inputs": [
        {
          "internalType": "uint256",
          "name": "_id",
          "type": "uint256"
        }
      ],
      "name": "toggleAppletStatus",
      "outputs": [],
      "stateMutability": "nonpayable",
      "type": "function"
    }
  ],
  "bytecode": "0x608060405234801561001057600080fd5b50610e41806100206000396000f3fe608060405234801561001057600080fd5b50600436106100625760003560e01c806330caf995146100675780638e860dca1461008d578063cd6098a614610096578063d13211af146100ab578063dd7b422c146100cb578063efb3b5d5146100f2575b600080fd5b61007a610075366004610a21565b610107565b6040519081526020015b60405180910390f35b61007a60015481565b61009e610243565b6040516100849190610b69565b6100be6100b9366004610bcb565b6104dd565b6040516100849190610be4565b6100de6100d9366004610bcb565b6106cd565b604051610084989796959493929190610bfe565b610105610100366004610bcb565b61082c565b005b600180546000918261011883610c63565b909155505060408051610100810182526001805480835260208084018b81528486018b9052606085018a905233608086015260a0850189905260c0850188905260e08501849052600092835290829052939020825181559251919291908201906101829082610d13565b50604082015160028201906101979082610d13565b506060820151600382015560808201516004820180546001600160a01b0319166001600160a01b0390921691909117905560a0820151600582015560c0820151600682015560e0909101516007909101805460ff19169115159190911790556001546040513391907f73cbe9634cd6e30be499a2e3dd09aa310299aa1c098803a61bc83215ffabf8da9061022e908a908990610dd3565b60405180910390a35060015495945050505050565b6060600060015b600154811161028d5760008181526020819052604090206007015460ff161561027b578161027781610c63565b9250505b8061028581610c63565b91505061024a565b5060008167ffffffffffffffff8111156102a9576102a961097e565b6040519080825280602002602001820160405280156102e257816020015b6102cf610939565b8152602001906001900390816102c75790505b509050600060015b60015481116104d45760008181526020819052604090206007015460ff16156104c257600081815260208181526040918290208251610100810190935280548352600181018054919284019161033f90610c8a565b80601f016020809104026020016040519081016040528092919081815260200182805461036b90610c8a565b80156103b85780601f1061038d576101008083540402835291602001916103b8565b820191906000526020600020905b81548152906001019060200180831161039b57829003601f168201915b505050505081526020016002820180546103d190610c8a565b80601f01602080910402602001604051908101604052809291908181526020018280546103fd90610c8a565b801561044a5780601f1061041f5761010080835404028352916020019161044a565b820191906000526020600020905b81548152906001019060200180831161042d57829003601f168201915b50505091835250506003820154602082015260048201546001600160a01b03166040820152600582015460608201526006820154608082015260079091015460ff16151560a09091015283518490849081106104a8576104a8610df5565b602002602001018190525081806104be90610c63565b9250505b806104cc81610c63565b9150506102ea565b50909392505050565b6104e5610939565b6000821180156104f757506001548211155b6105405760405162461bcd60e51b8152602060048201526015602482015274105c1c1b195d08191bd95cc81b9bdd08195e1a5cdd605a1b60448201526064015b60405180910390fd5b600082815260208181526040918290208251610100810190935280548352600181018054919284019161057290610c8a565b80601f016020809104026020016040519081016040528092919081815260200182805461059e90610c8a565b80156105eb5780601f106105c0576101008083540402835291602001916105eb565b820191906000526020600020905b8154815290600101906020018083116105ce57829003601f168201915b5050505050815260200160028201805461060490610c8a565b80601f016020809104026020016040519081016040528092919081815260200182805461063090610c8a565b801561067d5780601f106106525761010080835404028352916020019161067d565b820191906000526020600020905b81548152906001019060200180831161066057829003601f168201915b50505091835250506003820154602082015260048201546001600160a01b03166040820152600582015460608201526006820154608082015260079091015460ff16151560a09091015292915050565b600060208190529081526040902080546001820180549192916106ef90610c8a565b80601f016020809104026020016040519081016040528092919081815260200182805461071b90610c8a565b80156107685780601f1061073d57610100808354040283529160200191610768565b820191906000526020600020905b81548152906001019060200180831161074b57829003601f168201915b50505050509080600201805461077d90610c8a565b80601f01602080910402602001604051908101604052809291908181526020018280546107a990610c8a565b80156107f65780601f106107cb576101008083540402835291602001916107f6565b820191906000526020600020905b8154815290600101906020018083116107d957829003601f168201915b5050506003840154600485015460058601546006870154600790970154959692956001600160a01b039092169450925060ff1688565b60008111801561083e57506001548111155b6108825760405162461bcd60e51b8152602060048201526015602482015274105c1c1b195d08191bd95cc81b9bdd08195e1a5cdd605a1b6044820152606401610537565b6000818152602081905260409020600401546001600160a01b031633146108db5760405162461bcd60e51b815260206004820152600d60248201526c2737ba103a34329037bbb732b960991b6044820152606401610537565b60008181526020818152604091829020600701805460ff8082161560ff199092168217909255925192161515825282917fd3bc4d4a153a7640cd093d2132741f087010b3d2e3300193e8b92a7136c50d30910160405180910390a250565b604080516101008101825260008082526060602083018190529282018390529181018290526080810182905260a0810182905260c0810182905260e081019190915290565b634e487b7160e01b600052604160045260246000fd5b600082601f8301126109a557600080fd5b813567ffffffffffffffff808211156109c0576109c061097e565b604051601f8301601f19908116603f011681019082821181831017156109e8576109e861097e565b81604052838152866020858801011115610a0157600080fd5b836020870160208301376000602085830101528094505050505092915050565b600080600080600060a08688031215610a3957600080fd5b853567ffffffffffffffff80821115610a5157600080fd5b610a5d89838a01610994565b96506020880135915080821115610a7357600080fd5b50610a8088828901610994565b959895975050505060408401359360608101359360809091013592509050565b6000815180845260005b81811015610ac657602081850181015186830182015201610aaa565b506000602082860101526020601f19601f83011685010191505092915050565b6000610100825184526020830151816020860152610b0682860182610aa0565b91505060408301518482036040860152610b208282610aa0565b9150506060830151606085015260018060a01b03608084015116608085015260a083015160a085015260c083015160c085015260e0830151151560e08501528091505092915050565b6000602080830181845280855180835260408601915060408160051b870101925083870160005b82811015610bbe57603f19888603018452610bac858351610ae6565b94509285019290850190600101610b90565b5092979650505050505050565b600060208284031215610bdd57600080fd5b5035919050565b602081526000610bf76020830184610ae6565b9392505050565b60006101008a8352806020840152610c188184018b610aa0565b90508281036040840152610c2c818a610aa0565b606084019890985250506001600160a01b0394909416608085015260a084019290925260c0830152151560e0909101529392505050565b600060018201610c8357634e487b7160e01b600052601160045260246000fd5b5060010190565b600181811c90821680610c9e57607f821691505b602082108103610cbe57634e487b7160e01b600052602260045260246000fd5b50919050565b601f821115610d0e57600081815260208120601f850160051c81016020861015610ceb5750805b601f850160051c820191505b81811015610d0a57828155600101610cf7565b5050505b505050565b815167ffffffffffffffff811115610d2d57610d2d61097e565b610d4181610d3b8454610c8a565b84610cc4565b602080601f831160018114610d765760008415610d5e5750858301515b600019600386901b1c1916600185901b178555610d0a565b600085815260208120601f198616915b82811015610da557888601518255948401946001909101908401610d86565b5085821015610dc35787850151600019600388901b60f8161c191681555b5050505050600190811b01905550565b604081526000610de66040830185610aa0565b90508260208301529392505050565b634e487b7160e01b600052603260045260246000fdfea2646970667358221220488e3c0bde1ce5c4cf7d5076f6364c4b547f6dfa5dc3c2fcbad3f8711abcd47764736f6c63430008130033",
  "linkReferences": {},
  "deployedLinkReferences": {}
}